{
  "_format": "hh-sol-artifact-1",
  "contractName": "Vignette",
  "sourceName": "contracts/Vignette.sol",
  "abi": [
    {
      "inputs": [
        {
          "internalType": "address",
          "name": "account",
          "type": "address"
        }
      ],
      "name": "getAccount",
      "outputs": [
        {
          "components": [
            {
              "internalType": "string",
              "name": "account_metadata_cid",
              "type": "string"
            },
            {
              "internalType": "string[]",
              "name": "photographs",
              "type": "string[]"
            }
          ],
          "internalType": "struct Vignette.Account",
          "name": "",
          "type": "tuple"
        }
      ],
      "stateMutability": "view",
      "type": "function"
    },
    {
      "inputs": [],
      "name": "getAllPhotographs",
      "outputs": [
        {
          "components": [
            {
              "internalType": "string",
              "name": "image_cid",
              "type": "string"
            },
            {
              "internalType": "string",
              "name": "photograph_metadata_cid",
              "type": "string"
            },
            {
              "internalType": "string",
              "name": "copyright",
              "type": "string"
            }
          ],
          "internalType": "struct Vignette.Photograph[]",
          "name": "",
          "type": "tuple[]"
        }
      ],
      "stateMutability": "view",
      "type": "function"
    },
    {
      "inputs": [
        {
          "internalType": "address",
          "name": "account",
          "type": "address"
        }
      ],
      "name": "getPhotographs",
      "outputs": [
        {
          "components": [
            {
              "internalType": "string",
              "name": "image_cid",
              "type": "string"
            },
            {
              "internalType": "string",
              "name": "photograph_metadata_cid",
              "type": "string"
            },
            {
              "internalType": "string",
              "name": "copyright",
              "type": "string"
            }
          ],
          "internalType": "struct Vignette.Photograph[]",
          "name": "",
          "type": "tuple[]"
        }
      ],
      "stateMutability": "view",
      "type": "function"
    },
    {
      "inputs": [
        {
          "components": [
            {
              "internalType": "string",
              "name": "image_cid",
              "type": "string"
            },
            {
              "internalType": "string",
              "name": "photograph_metadata_cid",
              "type": "string"
            },
            {
              "internalType": "string",
              "name": "copyright",
              "type": "string"
            }
          ],
          "internalType": "struct Vignette.Photograph",
          "name": "photograph",
          "type": "tuple"
        }
      ],
      "name": "publishPhotograph",
      "outputs": [],
      "stateMutability": "nonpayable",
      "type": "function"
    },
    {
      "inputs": [
        {
          "internalType": "string",
          "name": "account_metadata_cid",
          "type": "string"
        }
      ],
      "name": "updateAccount",
      "outputs": [],
      "stateMutability": "nonpayable",
      "type": "function"
    }
  ],
  "bytecode": "0x608060405234801561001057600080fd5b506115e5806100206000396000f3fe608060405234801561001057600080fd5b50600436106100575760003560e01c8063141926fa1461005c5780632c096db614610078578063b1d00313146100a8578063ea4aaf17146100c4578063fbcbc0f1146100e2575b600080fd5b61007660048036038101906100719190610cae565b610112565b005b610092600480360381019061008d9190610c85565b610167565b60405161009f9190610ff5565b60405180910390f35b6100c260048036038101906100bd9190610cf3565b61053c565b005b6100cc610654565b6040516100d99190610ff5565b60405180910390f35b6100fc60048036038101906100f79190610c85565b61096a565b6040516101099190611017565b60405180910390f35b81816000803373ffffffffffffffffffffffffffffffffffffffff1673ffffffffffffffffffffffffffffffffffffffff1681526020019081526020016000206000019190610162929190610b2d565b505050565b606060008060008473ffffffffffffffffffffffffffffffffffffffff1673ffffffffffffffffffffffffffffffffffffffff1681526020019081526020016000206001018054905067ffffffffffffffff8111156101ef577f4e487b7100000000000000000000000000000000000000000000000000000000600052604160045260246000fd5b60405190808252806020026020018201604052801561022857816020015b610215610bb3565b81526020019060019003908161020d5790505b50905060005b6000808573ffffffffffffffffffffffffffffffffffffffff1673ffffffffffffffffffffffffffffffffffffffff168152602001908152602001600020600101805490508110156105325760016000808673ffffffffffffffffffffffffffffffffffffffff1673ffffffffffffffffffffffffffffffffffffffff16815260200190815260200160002060010182815481106102f5577f4e487b7100000000000000000000000000000000000000000000000000000000600052603260045260246000fd5b9060005260206000200160405161030c9190610fde565b90815260200160405180910390206040518060600160405290816000820180546103359061136f565b80601f01602080910402602001604051908101604052809291908181526020018280546103619061136f565b80156103ae5780601f10610383576101008083540402835291602001916103ae565b820191906000526020600020905b81548152906001019060200180831161039157829003601f168201915b505050505081526020016001820180546103c79061136f565b80601f01602080910402602001604051908101604052809291908181526020018280546103f39061136f565b80156104405780601f1061041557610100808354040283529160200191610440565b820191906000526020600020905b81548152906001019060200180831161042357829003601f168201915b505050505081526020016002820180546104599061136f565b80601f01602080910402602001604051908101604052809291908181526020018280546104859061136f565b80156104d25780601f106104a7576101008083540402835291602001916104d2565b820191906000526020600020905b8154815290600101906020018083116104b557829003601f168201915b505050505081525050828281518110610514577f4e487b7100000000000000000000000000000000000000000000000000000000600052603260045260246000fd5b6020026020010181905250808061052a906113bd565b91505061022e565b5080915050919050565b80600182806000019061054f9190611039565b60405161055d929190610fc5565b908152602001604051809103902081816105779190611560565b905050600281806000019061058c9190611039565b909180600181540180825580915050600190039060005260206000200160009091929091929091929091925091906105c5929190610b2d565b506000803373ffffffffffffffffffffffffffffffffffffffff1673ffffffffffffffffffffffffffffffffffffffff1681526020019081526020016000206001018180600001906106179190611039565b90918060018154018082558091505060019003906000526020600020016000909192909192909192909192509190610650929190610b2d565b5050565b6060600060028054905067ffffffffffffffff81111561069d577f4e487b7100000000000000000000000000000000000000000000000000000000600052604160045260246000fd5b6040519080825280602002602001820160405280156106d657816020015b6106c3610bb3565b8152602001906001900390816106bb5790505b50905060005b60028054905081101561096257600160028281548110610725577f4e487b7100000000000000000000000000000000000000000000000000000000600052603260045260246000fd5b9060005260206000200160405161073c9190610fde565b90815260200160405180910390206040518060600160405290816000820180546107659061136f565b80601f01602080910402602001604051908101604052809291908181526020018280546107919061136f565b80156107de5780601f106107b3576101008083540402835291602001916107de565b820191906000526020600020905b8154815290600101906020018083116107c157829003601f168201915b505050505081526020016001820180546107f79061136f565b80601f01602080910402602001604051908101604052809291908181526020018280546108239061136f565b80156108705780601f1061084557610100808354040283529160200191610870565b820191906000526020600020905b81548152906001019060200180831161085357829003601f168201915b505050505081526020016002820180546108899061136f565b80601f01602080910402602001604051908101604052809291908181526020018280546108b59061136f565b80156109025780601f106108d757610100808354040283529160200191610902565b820191906000526020600020905b8154815290600101906020018083116108e557829003601f168201915b505050505081525050828281518110610944577f4e487b7100000000000000000000000000000000000000000000000000000000600052603260045260246000fd5b6020026020010181905250808061095a906113bd565b9150506106dc565b508091505090565b610972610bd4565b6000808373ffffffffffffffffffffffffffffffffffffffff1673ffffffffffffffffffffffffffffffffffffffff1681526020019081526020016000206040518060400160405290816000820180546109cb9061136f565b80601f01602080910402602001604051908101604052809291908181526020018280546109f79061136f565b8015610a445780601f10610a1957610100808354040283529160200191610a44565b820191906000526020600020905b815481529060010190602001808311610a2757829003601f168201915b5050505050815260200160018201805480602002602001604051908101604052809291908181526020016000905b82821015610b1e578382906000526020600020018054610a919061136f565b80601f0160208091040260200160405190810160405280929190818152602001828054610abd9061136f565b8015610b0a5780601f10610adf57610100808354040283529160200191610b0a565b820191906000526020600020905b815481529060010190602001808311610aed57829003601f168201915b505050505081526020019060010190610a72565b50505050815250509050919050565b828054610b399061136f565b90600052602060002090601f016020900481019282610b5b5760008555610ba2565b82601f10610b7457803560ff1916838001178555610ba2565b82800160010185558215610ba2579182015b82811115610ba1578235825591602001919060010190610b86565b5b509050610baf9190610bee565b5090565b60405180606001604052806060815260200160608152602001606081525090565b604051806040016040528060608152602001606081525090565b5b80821115610c07576000816000905550600101610bef565b5090565b600081359050610c1a81611593565b92915050565b60008083601f840112610c3257600080fd5b8235905067ffffffffffffffff811115610c4b57600080fd5b602083019150836001820283011115610c6357600080fd5b9250929050565b600060608284031215610c7c57600080fd5b81905092915050565b600060208284031215610c9757600080fd5b6000610ca584828501610c0b565b91505092915050565b60008060208385031215610cc157600080fd5b600083013567ffffffffffffffff811115610cdb57600080fd5b610ce785828601610c20565b92509250509250929050565b600060208284031215610d0557600080fd5b600082013567ffffffffffffffff811115610d1f57600080fd5b610d2b84828501610c6a565b91505092915050565b6000610d408383610e6b565b905092915050565b6000610d548383610f67565b905092915050565b6000610d67826110c5565b610d71818561110b565b935083602082028501610d8385611090565b8060005b85811015610dbf5784840389528151610da08582610d34565b9450610dab836110f1565b925060208a01995050600181019050610d87565b50829750879550505050505092915050565b6000610ddc826110d0565b610de6818561111c565b935083602082028501610df8856110a0565b8060005b85811015610e345784840389528151610e158582610d48565b9450610e20836110fe565b925060208a01995050600181019050610dfc565b50829750879550505050505092915050565b6000610e52838561113e565b9350610e5f8385846112c6565b82840190509392505050565b6000610e76826110e6565b610e80818561112d565b9350610e908185602086016112d5565b610e99816114bb565b840191505092915050565b60008154610eb18161136f565b610ebb818661113e565b94506001821660008114610ed65760018114610ee757610f1a565b60ff19831686528186019350610f1a565b610ef0856110b0565b60005b83811015610f1257815481890152600182019150602081019050610ef3565b838801955050505b50505092915050565b60006040830160008301518482036000860152610f408282610e6b565b91505060208301518482036020860152610f5a8282610d5c565b9150508091505092915050565b60006060830160008301518482036000860152610f848282610e6b565b91505060208301518482036020860152610f9e8282610e6b565b91505060408301518482036040860152610fb88282610e6b565b9150508091505092915050565b6000610fd2828486610e46565b91508190509392505050565b6000610fea8284610ea4565b915081905092915050565b6000602082019050818103600083015261100f8184610dd1565b905092915050565b600060208201905081810360008301526110318184610f23565b905092915050565b6000808335600160200384360303811261105257600080fd5b80840192508235915067ffffffffffffffff82111561107057600080fd5b60208301925060018202360383131561108857600080fd5b509250929050565b6000819050602082019050919050565b6000819050602082019050919050565b60008190508160005260206000209050919050565b600081519050919050565b600081519050919050565b600082905092915050565b600081519050919050565b6000602082019050919050565b6000602082019050919050565b600082825260208201905092915050565b600082825260208201905092915050565b600082825260208201905092915050565b600081905092915050565b60006111548261115b565b9050919050565b600073ffffffffffffffffffffffffffffffffffffffff82169050919050565b6000819050919050565b5b818110156111a4576111996000826114e6565b600181019050611186565b5050565b60006111b38261117b565b9050919050565b6111c483836110db565b67ffffffffffffffff8111156111dd576111dc611482565b5b6111e7825461136f565b600080601f8411601f8411171561120457611201856110b0565b90505b601f831115611237576020601f85010481016020851015611223578190505b6112356020601f860104830182611185565b505b601f8411600181146112645760008515611252578388013590505b61125c86826113a1565b8755506112bc565b601f1985168260005b8281101561129257858a0135825560018201915060208601955060208101905061126d565b878310156112af57858a01356112ab601f8a1682611406565b8355505b6001600289020189555050505b5050505050505050565b82818337600083830152505050565b60005b838110156112f35780820151818401526020810190506112d8565b83811115611302576000848401525b50505050565b600081016000830161131a8185611039565b611325818386611550565b50505050600181016020830161133b8185611039565b611346818386611550565b50505050600281016040830161135c8185611039565b611367818386611550565b505050505050565b6000600282049050600182168061138757607f821691505b6020821081141561139b5761139a611453565b5b50919050565b60006113ad8383611406565b9150826002028217905092915050565b60006113c88261117b565b91507fffffffffffffffffffffffffffffffffffffffffffffffffffffffffffffffff8214156113fb576113fa611424565b5b600182019050919050565b6000611417600019846008026114d9565b1980831691505092915050565b7f4e487b7100000000000000000000000000000000000000000000000000000000600052601160045260246000fd5b7f4e487b7100000000000000000000000000000000000000000000000000000000600052602260045260246000fd5b7f4e487b7100000000000000000000000000000000000000000000000000000000600052604160045260246000fd5b6000819050919050565b6000601f19601f8301169050919050565b600082821b905092915050565b600082821c905092915050565b6114ee6115aa565b6114f981848461156e565b505050565b60006008830261152e7fffffffffffffffffffffffffffffffffffffffffffffffffffffffffffffffff826114cc565b61153886836114cc565b95508019841693508086168417925050509392505050565b61155b8383836111ba565b505050565b61156a8282611308565b5050565b611577836111a8565b61158b611583826114b1565b8484546114fe565b825550505050565b61159c81611149565b81146115a757600080fd5b50565b60009056fea2646970667358221220a30258f42e765f391d159d9e21ba335f1abd530de86a1755c613a2e7fdbe46c464736f6c63430008040033",
  "linkReferences": {},
  "deployedLinkReferences": {}
}