{
  "_format": "hh-sol-artifact-1",
  "contractName": "Vignette",
  "sourceName": "contracts/Vignette.sol",
  "abi": [
    {
      "inputs": [
        {
          "internalType": "address",
          "name": "account",
          "type": "address"
        }
      ],
      "name": "getAccount",
      "outputs": [
        {
          "components": [
            {
              "internalType": "string",
              "name": "account_metadata_cid",
              "type": "string"
            },
            {
              "internalType": "uint256",
              "name": "photograph_count",
              "type": "uint256"
            },
            {
              "components": [
                {
                  "internalType": "string",
                  "name": "image_cid",
                  "type": "string"
                },
                {
                  "internalType": "string",
                  "name": "photograph_metadata_cid",
                  "type": "string"
                },
                {
                  "internalType": "string",
                  "name": "copyright",
                  "type": "string"
                }
              ],
              "internalType": "struct Vignette.Photograph[]",
              "name": "photographs",
              "type": "tuple[]"
            }
          ],
          "internalType": "struct Vignette.Account",
          "name": "",
          "type": "tuple"
        }
      ],
      "stateMutability": "view",
      "type": "function"
    },
    {
      "inputs": [
        {
          "internalType": "address",
          "name": "account",
          "type": "address"
        }
      ],
      "name": "getPhotographs",
      "outputs": [
        {
          "components": [
            {
              "internalType": "string",
              "name": "image_cid",
              "type": "string"
            },
            {
              "internalType": "string",
              "name": "photograph_metadata_cid",
              "type": "string"
            },
            {
              "internalType": "string",
              "name": "copyright",
              "type": "string"
            }
          ],
          "internalType": "struct Vignette.Photograph[]",
          "name": "",
          "type": "tuple[]"
        }
      ],
      "stateMutability": "view",
      "type": "function"
    },
    {
      "inputs": [
        {
          "components": [
            {
              "internalType": "string",
              "name": "image_cid",
              "type": "string"
            },
            {
              "internalType": "string",
              "name": "photograph_metadata_cid",
              "type": "string"
            },
            {
              "internalType": "string",
              "name": "copyright",
              "type": "string"
            }
          ],
          "internalType": "struct Vignette.Photograph",
          "name": "photograph",
          "type": "tuple"
        }
      ],
      "name": "publishPhotograph",
      "outputs": [],
      "stateMutability": "nonpayable",
      "type": "function"
    },
    {
      "inputs": [
        {
          "internalType": "string",
          "name": "account_metadata_cid",
          "type": "string"
        }
      ],
      "name": "updateAccount",
      "outputs": [],
      "stateMutability": "nonpayable",
      "type": "function"
    }
  ],
  "bytecode": "0x608060405234801561001057600080fd5b506110c1806100206000396000f3fe608060405234801561001057600080fd5b506004361061004c5760003560e01c8063141926fa146100515780632c096db61461006d578063b1d003131461009d578063fbcbc0f1146100b9575b600080fd5b61006b6004803603810190610066919061090a565b6100e9565b005b610087600480360381019061008291906108e1565b61013e565b6040516100949190610b8b565b60405180910390f35b6100b760048036038101906100b2919061094f565b610394565b005b6100d360048036038101906100ce91906108e1565b61049a565b6040516100e09190610bad565b60405180910390f35b81816000803373ffffffffffffffffffffffffffffffffffffffff1673ffffffffffffffffffffffffffffffffffffffff16815260200190815260200160002060000191906101399291906107a3565b505050565b60606000808373ffffffffffffffffffffffffffffffffffffffff1673ffffffffffffffffffffffffffffffffffffffff168152602001908152602001600020600201805480602002602001604051908101604052809291908181526020016000905b8282101561038957838290600052602060002090600302016040518060600160405290816000820180546101d490610ec3565b80601f016020809104026020016040519081016040528092919081815260200182805461020090610ec3565b801561024d5780601f106102225761010080835404028352916020019161024d565b820191906000526020600020905b81548152906001019060200180831161023057829003601f168201915b5050505050815260200160018201805461026690610ec3565b80601f016020809104026020016040519081016040528092919081815260200182805461029290610ec3565b80156102df5780601f106102b4576101008083540402835291602001916102df565b820191906000526020600020905b8154815290600101906020018083116102c257829003601f168201915b505050505081526020016002820180546102f890610ec3565b80601f016020809104026020016040519081016040528092919081815260200182805461032490610ec3565b80156103715780601f1061034657610100808354040283529160200191610371565b820191906000526020600020905b81548152906001019060200180831161035457829003601f168201915b505050505081525050815260200190600101906101a1565b505050509050919050565b6000803373ffffffffffffffffffffffffffffffffffffffff1673ffffffffffffffffffffffffffffffffffffffff168152602001908152602001600020600201819080600181540180825580915050600190039060005260206000209060030201600090919091909150818161040b919061103c565b50506000803373ffffffffffffffffffffffffffffffffffffffff1673ffffffffffffffffffffffffffffffffffffffff168152602001908152602001600020600201805490506000803373ffffffffffffffffffffffffffffffffffffffff1673ffffffffffffffffffffffffffffffffffffffff1681526020019081526020016000206001018190555050565b6104a2610829565b6000808373ffffffffffffffffffffffffffffffffffffffff1673ffffffffffffffffffffffffffffffffffffffff1681526020019081526020016000206040518060600160405290816000820180546104fb90610ec3565b80601f016020809104026020016040519081016040528092919081815260200182805461052790610ec3565b80156105745780601f1061054957610100808354040283529160200191610574565b820191906000526020600020905b81548152906001019060200180831161055757829003601f168201915b505050505081526020016001820154815260200160028201805480602002602001604051908101604052809291908181526020016000905b8282101561079457838290600052602060002090600302016040518060600160405290816000820180546105df90610ec3565b80601f016020809104026020016040519081016040528092919081815260200182805461060b90610ec3565b80156106585780601f1061062d57610100808354040283529160200191610658565b820191906000526020600020905b81548152906001019060200180831161063b57829003601f168201915b5050505050815260200160018201805461067190610ec3565b80601f016020809104026020016040519081016040528092919081815260200182805461069d90610ec3565b80156106ea5780601f106106bf576101008083540402835291602001916106ea565b820191906000526020600020905b8154815290600101906020018083116106cd57829003601f168201915b5050505050815260200160028201805461070390610ec3565b80601f016020809104026020016040519081016040528092919081815260200182805461072f90610ec3565b801561077c5780601f106107515761010080835404028352916020019161077c565b820191906000526020600020905b81548152906001019060200180831161075f57829003601f168201915b505050505081525050815260200190600101906105ac565b50505050815250509050919050565b8280546107af90610ec3565b90600052602060002090601f0160209004810192826107d15760008555610818565b82601f106107ea57803560ff1916838001178555610818565b82800160010185558215610818579182015b828111156108175782358255916020019190600101906107fc565b5b509050610825919061084a565b5090565b60405180606001604052806060815260200160008152602001606081525090565b5b8082111561086357600081600090555060010161084b565b5090565b6000813590506108768161106f565b92915050565b60008083601f84011261088e57600080fd5b8235905067ffffffffffffffff8111156108a757600080fd5b6020830191508360018202830111156108bf57600080fd5b9250929050565b6000606082840312156108d857600080fd5b81905092915050565b6000602082840312156108f357600080fd5b600061090184828501610867565b91505092915050565b6000806020838503121561091d57600080fd5b600083013567ffffffffffffffff81111561093757600080fd5b6109438582860161087c565b92509250509250929050565b60006020828403121561096157600080fd5b600082013567ffffffffffffffff81111561097b57600080fd5b610987848285016108c6565b91505092915050565b600061099c8383610b1e565b905092915050565b60006109af82610c4b565b6109b98185610c79565b9350836020820285016109cb85610c26565b8060005b85811015610a0757848403895281516109e88582610990565b94506109f383610c6c565b925060208a019950506001810190506109cf565b50829750879550505050505092915050565b6000610a2482610c4b565b610a2e8185610c8a565b935083602082028501610a4085610c26565b8060005b85811015610a7c5784840389528151610a5d8582610990565b9450610a6883610c6c565b925060208a01995050600181019050610a44565b50829750879550505050505092915050565b6000610a9982610c61565b610aa38185610c9b565b9350610ab3818560208601610e29565b610abc81610f97565b840191505092915050565b60006060830160008301518482036000860152610ae48282610a8e565b9150506020830151610af96020860182610b7c565b5060408301518482036040860152610b1182826109a4565b9150508091505092915050565b60006060830160008301518482036000860152610b3b8282610a8e565b91505060208301518482036020860152610b558282610a8e565b91505060408301518482036040860152610b6f8282610a8e565b9150508091505092915050565b610b8581610cde565b82525050565b60006020820190508181036000830152610ba58184610a19565b905092915050565b60006020820190508181036000830152610bc78184610ac7565b905092915050565b60008083356001602003843603038112610be857600080fd5b80840192508235915067ffffffffffffffff821115610c0657600080fd5b602083019250600182023603831315610c1e57600080fd5b509250929050565b6000819050602082019050919050565b60008190508160005260206000209050919050565b600081519050919050565b600082905092915050565b600081519050919050565b6000602082019050919050565b600082825260208201905092915050565b600082825260208201905092915050565b600082825260208201905092915050565b6000610cb782610cbe565b9050919050565b600073ffffffffffffffffffffffffffffffffffffffff82169050919050565b6000819050919050565b5b81811015610d0757610cfc600082610fc2565b600181019050610ce9565b5050565b6000610d1682610cde565b9050919050565b610d278383610c56565b67ffffffffffffffff811115610d4057610d3f610f5e565b5b610d4a8254610ec3565b600080601f8411601f84111715610d6757610d6485610c36565b90505b601f831115610d9a576020601f85010481016020851015610d86578190505b610d986020601f860104830182610ce8565b505b601f841160018114610dc75760008515610db5578388013590505b610dbf8682610ef5565b875550610e1f565b601f1985168260005b82811015610df557858a01358255600182019150602086019550602081019050610dd0565b87831015610e1257858a0135610e0e601f8a1682610f11565b8355505b6001600289020189555050505b5050505050505050565b60005b83811015610e47578082015181840152602081019050610e2c565b83811115610e56576000848401525b50505050565b6000810160008301610e6e8185610bcf565b610e7981838661102c565b505050506001810160208301610e8f8185610bcf565b610e9a81838661102c565b505050506002810160408301610eb08185610bcf565b610ebb81838661102c565b505050505050565b60006002820490506001821680610edb57607f821691505b60208210811415610eef57610eee610f2f565b5b50919050565b6000610f018383610f11565b9150826002028217905092915050565b6000610f2260001984600802610fb5565b1980831691505092915050565b7f4e487b7100000000000000000000000000000000000000000000000000000000600052602260045260246000fd5b7f4e487b7100000000000000000000000000000000000000000000000000000000600052604160045260246000fd5b6000819050919050565b6000601f19601f8301169050919050565b600082821b905092915050565b600082821c905092915050565b610fca611086565b610fd581848461104a565b505050565b60006008830261100a7fffffffffffffffffffffffffffffffffffffffffffffffffffffffffffffffff82610fa8565b6110148683610fa8565b95508019841693508086168417925050509392505050565b611037838383610d1d565b505050565b6110468282610e5c565b5050565b61105383610d0b565b61106761105f82610f8d565b848454610fda565b825550505050565b61107881610cac565b811461108357600080fd5b50565b60009056fea26469706673582212204b8bf33255efcf243c0a7d3e3ff4ff83eba1cf219d96ed2655b4be50e1f2ce3764736f6c63430008040033",
  "linkReferences": {},
  "deployedLinkReferences": {}
}