{
  "_format": "hh-sol-artifact-1",
  "contractName": "Vignette",
  "sourceName": "contracts/Vignette.sol",
  "abi": [
    {
      "inputs": [
        {
          "internalType": "address",
          "name": "account",
          "type": "address"
        }
      ],
      "name": "getAccount",
      "outputs": [
        {
          "components": [
            {
              "internalType": "string",
              "name": "account_metadata_cid",
              "type": "string"
            },
            {
              "internalType": "string[]",
              "name": "photographs",
              "type": "string[]"
            }
          ],
          "internalType": "struct Vignette.Account",
          "name": "",
          "type": "tuple"
        }
      ],
      "stateMutability": "view",
      "type": "function"
    },
    {
      "inputs": [
        {
          "internalType": "address",
          "name": "account",
          "type": "address"
        }
      ],
      "name": "getPhotographs",
      "outputs": [
        {
          "components": [
            {
              "internalType": "string",
              "name": "image_cid",
              "type": "string"
            },
            {
              "internalType": "string",
              "name": "photograph_metadata_cid",
              "type": "string"
            },
            {
              "internalType": "string",
              "name": "copyright",
              "type": "string"
            }
          ],
          "internalType": "struct Vignette.Photograph[]",
          "name": "",
          "type": "tuple[]"
        }
      ],
      "stateMutability": "view",
      "type": "function"
    },
    {
      "inputs": [
        {
          "components": [
            {
              "internalType": "string",
              "name": "image_cid",
              "type": "string"
            },
            {
              "internalType": "string",
              "name": "photograph_metadata_cid",
              "type": "string"
            },
            {
              "internalType": "string",
              "name": "copyright",
              "type": "string"
            }
          ],
          "internalType": "struct Vignette.Photograph",
          "name": "photograph",
          "type": "tuple"
        }
      ],
      "name": "publishPhotograph",
      "outputs": [],
      "stateMutability": "nonpayable",
      "type": "function"
    },
    {
      "inputs": [
        {
          "internalType": "string",
          "name": "account_metadata_cid",
          "type": "string"
        }
      ],
      "name": "updateAccount",
      "outputs": [],
      "stateMutability": "nonpayable",
      "type": "function"
    }
  ],
  "bytecode": "0x608060405234801561001057600080fd5b506112a6806100206000396000f3fe608060405234801561001057600080fd5b506004361061004c5760003560e01c8063141926fa146100515780632c096db61461006d578063b1d003131461009d578063fbcbc0f1146100b9575b600080fd5b61006b6004803603810190610066919061096f565b6100e9565b005b61008760048036038101906100829190610946565b61013e565b6040516100949190610cb6565b60405180910390f35b6100b760048036038101906100b291906109b4565b610513565b005b6100d360048036038101906100ce9190610946565b61062b565b6040516100e09190610cd8565b60405180910390f35b81816000803373ffffffffffffffffffffffffffffffffffffffff1673ffffffffffffffffffffffffffffffffffffffff16815260200190815260200160002060000191906101399291906107ee565b505050565b606060008060008473ffffffffffffffffffffffffffffffffffffffff1673ffffffffffffffffffffffffffffffffffffffff1681526020019081526020016000206001018054905067ffffffffffffffff8111156101c6577f4e487b7100000000000000000000000000000000000000000000000000000000600052604160045260246000fd5b6040519080825280602002602001820160405280156101ff57816020015b6101ec610874565b8152602001906001900390816101e45790505b50905060005b6000808573ffffffffffffffffffffffffffffffffffffffff1673ffffffffffffffffffffffffffffffffffffffff168152602001908152602001600020600101805490508110156105095760016000808673ffffffffffffffffffffffffffffffffffffffff1673ffffffffffffffffffffffffffffffffffffffff16815260200190815260200160002060010182815481106102cc577f4e487b7100000000000000000000000000000000000000000000000000000000600052603260045260246000fd5b906000526020600020016040516102e39190610c9f565b908152602001604051809103902060405180606001604052908160008201805461030c90611030565b80601f016020809104026020016040519081016040528092919081815260200182805461033890611030565b80156103855780601f1061035a57610100808354040283529160200191610385565b820191906000526020600020905b81548152906001019060200180831161036857829003601f168201915b5050505050815260200160018201805461039e90611030565b80601f01602080910402602001604051908101604052809291908181526020018280546103ca90611030565b80156104175780601f106103ec57610100808354040283529160200191610417565b820191906000526020600020905b8154815290600101906020018083116103fa57829003601f168201915b5050505050815260200160028201805461043090611030565b80601f016020809104026020016040519081016040528092919081815260200182805461045c90611030565b80156104a95780601f1061047e576101008083540402835291602001916104a9565b820191906000526020600020905b81548152906001019060200180831161048c57829003601f168201915b5050505050815250508282815181106104eb577f4e487b7100000000000000000000000000000000000000000000000000000000600052603260045260246000fd5b602002602001018190525080806105019061107e565b915050610205565b5080915050919050565b8060018280600001906105269190610cfa565b604051610534929190610c86565b9081526020016040518091039020818161054e9190611221565b90505060028180600001906105639190610cfa565b9091806001815401808255809150506001900390600052602060002001600090919290919290919290919250919061059c9291906107ee565b506000803373ffffffffffffffffffffffffffffffffffffffff1673ffffffffffffffffffffffffffffffffffffffff1681526020019081526020016000206001018180600001906105ee9190610cfa565b909180600181540180825580915050600190039060005260206000200160009091929091929091929091925091906106279291906107ee565b5050565b610633610895565b6000808373ffffffffffffffffffffffffffffffffffffffff1673ffffffffffffffffffffffffffffffffffffffff16815260200190815260200160002060405180604001604052908160008201805461068c90611030565b80601f01602080910402602001604051908101604052809291908181526020018280546106b890611030565b80156107055780601f106106da57610100808354040283529160200191610705565b820191906000526020600020905b8154815290600101906020018083116106e857829003601f168201915b5050505050815260200160018201805480602002602001604051908101604052809291908181526020016000905b828210156107df57838290600052602060002001805461075290611030565b80601f016020809104026020016040519081016040528092919081815260200182805461077e90611030565b80156107cb5780601f106107a0576101008083540402835291602001916107cb565b820191906000526020600020905b8154815290600101906020018083116107ae57829003601f168201915b505050505081526020019060010190610733565b50505050815250509050919050565b8280546107fa90611030565b90600052602060002090601f01602090048101928261081c5760008555610863565b82601f1061083557803560ff1916838001178555610863565b82800160010185558215610863579182015b82811115610862578235825591602001919060010190610847565b5b50905061087091906108af565b5090565b60405180606001604052806060815260200160608152602001606081525090565b604051806040016040528060608152602001606081525090565b5b808211156108c85760008160009055506001016108b0565b5090565b6000813590506108db81611254565b92915050565b60008083601f8401126108f357600080fd5b8235905067ffffffffffffffff81111561090c57600080fd5b60208301915083600182028301111561092457600080fd5b9250929050565b60006060828403121561093d57600080fd5b81905092915050565b60006020828403121561095857600080fd5b6000610966848285016108cc565b91505092915050565b6000806020838503121561098257600080fd5b600083013567ffffffffffffffff81111561099c57600080fd5b6109a8858286016108e1565b92509250509250929050565b6000602082840312156109c657600080fd5b600082013567ffffffffffffffff8111156109e057600080fd5b6109ec8482850161092b565b91505092915050565b6000610a018383610b2c565b905092915050565b6000610a158383610c28565b905092915050565b6000610a2882610d86565b610a328185610dcc565b935083602082028501610a4485610d51565b8060005b85811015610a805784840389528151610a6185826109f5565b9450610a6c83610db2565b925060208a01995050600181019050610a48565b50829750879550505050505092915050565b6000610a9d82610d91565b610aa78185610ddd565b935083602082028501610ab985610d61565b8060005b85811015610af55784840389528151610ad68582610a09565b9450610ae183610dbf565b925060208a01995050600181019050610abd565b50829750879550505050505092915050565b6000610b138385610dff565b9350610b20838584610f87565b82840190509392505050565b6000610b3782610da7565b610b418185610dee565b9350610b51818560208601610f96565b610b5a8161117c565b840191505092915050565b60008154610b7281611030565b610b7c8186610dff565b94506001821660008114610b975760018114610ba857610bdb565b60ff19831686528186019350610bdb565b610bb185610d71565b60005b83811015610bd357815481890152600182019150602081019050610bb4565b838801955050505b50505092915050565b60006040830160008301518482036000860152610c018282610b2c565b91505060208301518482036020860152610c1b8282610a1d565b9150508091505092915050565b60006060830160008301518482036000860152610c458282610b2c565b91505060208301518482036020860152610c5f8282610b2c565b91505060408301518482036040860152610c798282610b2c565b9150508091505092915050565b6000610c93828486610b07565b91508190509392505050565b6000610cab8284610b65565b915081905092915050565b60006020820190508181036000830152610cd08184610a92565b905092915050565b60006020820190508181036000830152610cf28184610be4565b905092915050565b60008083356001602003843603038112610d1357600080fd5b80840192508235915067ffffffffffffffff821115610d3157600080fd5b602083019250600182023603831315610d4957600080fd5b509250929050565b6000819050602082019050919050565b6000819050602082019050919050565b60008190508160005260206000209050919050565b600081519050919050565b600081519050919050565b600082905092915050565b600081519050919050565b6000602082019050919050565b6000602082019050919050565b600082825260208201905092915050565b600082825260208201905092915050565b600082825260208201905092915050565b600081905092915050565b6000610e1582610e1c565b9050919050565b600073ffffffffffffffffffffffffffffffffffffffff82169050919050565b6000819050919050565b5b81811015610e6557610e5a6000826111a7565b600181019050610e47565b5050565b6000610e7482610e3c565b9050919050565b610e858383610d9c565b67ffffffffffffffff811115610e9e57610e9d611143565b5b610ea88254611030565b600080601f8411601f84111715610ec557610ec285610d71565b90505b601f831115610ef8576020601f85010481016020851015610ee4578190505b610ef66020601f860104830182610e46565b505b601f841160018114610f255760008515610f13578388013590505b610f1d8682611062565b875550610f7d565b601f1985168260005b82811015610f5357858a01358255600182019150602086019550602081019050610f2e565b87831015610f7057858a0135610f6c601f8a16826110c7565b8355505b6001600289020189555050505b5050505050505050565b82818337600083830152505050565b60005b83811015610fb4578082015181840152602081019050610f99565b83811115610fc3576000848401525b50505050565b6000810160008301610fdb8185610cfa565b610fe6818386611211565b505050506001810160208301610ffc8185610cfa565b611007818386611211565b50505050600281016040830161101d8185610cfa565b611028818386611211565b505050505050565b6000600282049050600182168061104857607f821691505b6020821081141561105c5761105b611114565b5b50919050565b600061106e83836110c7565b9150826002028217905092915050565b600061108982610e3c565b91507fffffffffffffffffffffffffffffffffffffffffffffffffffffffffffffffff8214156110bc576110bb6110e5565b5b600182019050919050565b60006110d86000198460080261119a565b1980831691505092915050565b7f4e487b7100000000000000000000000000000000000000000000000000000000600052601160045260246000fd5b7f4e487b7100000000000000000000000000000000000000000000000000000000600052602260045260246000fd5b7f4e487b7100000000000000000000000000000000000000000000000000000000600052604160045260246000fd5b6000819050919050565b6000601f19601f8301169050919050565b600082821b905092915050565b600082821c905092915050565b6111af61126b565b6111ba81848461122f565b505050565b6000600883026111ef7fffffffffffffffffffffffffffffffffffffffffffffffffffffffffffffffff8261118d565b6111f9868361118d565b95508019841693508086168417925050509392505050565b61121c838383610e7b565b505050565b61122b8282610fc9565b5050565b61123883610e69565b61124c61124482611172565b8484546111bf565b825550505050565b61125d81610e0a565b811461126857600080fd5b50565b60009056fea26469706673582212209125a174603e5dd6e385f115ea08cb2beece5c8f225dc0c08cf5aaa71415265764736f6c63430008040033",
  "linkReferences": {},
  "deployedLinkReferences": {}
}